{
    "contractName": "Election",
    "abi": [
        {
            "inputs": [],
            "stateMutability": "nonpayable",
            "type": "constructor"
        },
        {
            "inputs": [
                {
                    "internalType": "string",
                    "name": "_header",
                    "type": "string"
                },
                {
                    "internalType": "string",
                    "name": "_slogan",
                    "type": "string"
                }
            ],
            "name": "addCandidate",
            "outputs": [],
            "stateMutability": "nonpayable",
            "type": "function"
        },
        {
            "inputs": [],
            "name": "admin",
            "outputs": [
                {
                    "internalType": "address",
                    "name": "",
                    "type": "address"
                }
            ],
            "stateMutability": "view",
            "type": "function"
        },
        {
            "inputs": [
                {
                    "internalType": "uint256",
                    "name": "",
                    "type": "uint256"
                }
            ],
            "name": "candidateDetails",
            "outputs": [
                {
                    "internalType": "uint256",
                    "name": "candidateId",
                    "type": "uint256"
                },
                {
                    "internalType": "string",
                    "name": "header",
                    "type": "string"
                },
                {
                    "internalType": "string",
                    "name": "slogan",
                    "type": "string"
                },
                {
                    "internalType": "uint256",
                    "name": "voteCount",
                    "type": "uint256"
                }
            ],
            "stateMutability": "view",
            "type": "function"
        },
        {
            "inputs": [],
            "name": "endElection",
            "outputs": [],
            "stateMutability": "nonpayable",
            "type": "function"
        },
        {
            "inputs": [],
            "name": "getAdmin",
            "outputs": [
                {
                    "internalType": "address",
                    "name": "",
                    "type": "address"
                }
            ],
            "stateMutability": "view",
            "type": "function"
        },
        {
            "inputs": [],
            "name": "getAdminEmail",
            "outputs": [
                {
                    "internalType": "string",
                    "name": "",
                    "type": "string"
                }
            ],
            "stateMutability": "view",
            "type": "function"
        },
        {
            "inputs": [],
            "name": "getAdminName",
            "outputs": [
                {
                    "internalType": "string",
                    "name": "",
                    "type": "string"
                }
            ],
            "stateMutability": "view",
            "type": "function"
        },
        {
            "inputs": [],
            "name": "getAdminTitle",
            "outputs": [
                {
                    "internalType": "string",
                    "name": "",
                    "type": "string"
                }
            ],
            "stateMutability": "view",
            "type": "function"
        },
        {
            "inputs": [],
            "name": "getElectionTitle",
            "outputs": [
                {
                    "internalType": "string",
                    "name": "",
                    "type": "string"
                }
            ],
            "stateMutability": "view",
            "type": "function"
        },
        {
            "inputs": [],
            "name": "getEnd",
            "outputs": [
                {
                    "internalType": "bool",
                    "name": "",
                    "type": "bool"
                }
            ],
            "stateMutability": "view",
            "type": "function"
        },
        {
            "inputs": [],
            "name": "getOrganizationTitle",
            "outputs": [
                {
                    "internalType": "string",
                    "name": "",
                    "type": "string"
                }
            ],
            "stateMutability": "view",
            "type": "function"
        },
        {
            "inputs": [],
            "name": "getStart",
            "outputs": [
                {
                    "internalType": "bool",
                    "name": "",
                    "type": "bool"
                }
            ],
            "stateMutability": "view",
            "type": "function"
        },
        {
            "inputs": [],
            "name": "getTotalCandidate",
            "outputs": [
                {
                    "internalType": "uint256",
                    "name": "",
                    "type": "uint256"
                }
            ],
            "stateMutability": "view",
            "type": "function"
        },
        {
            "inputs": [],
            "name": "getTotalVoter",
            "outputs": [
                {
                    "internalType": "uint256",
                    "name": "",
                    "type": "uint256"
                }
            ],
            "stateMutability": "view",
            "type": "function"
        },
        {
            "inputs": [
                {
                    "internalType": "string",
                    "name": "_name",
                    "type": "string"
                },
                {
                    "internalType": "string",
                    "name": "_phone",
                    "type": "string"
                }
            ],
            "name": "registerAsVoter",
            "outputs": [],
            "stateMutability": "nonpayable",
            "type": "function"
        },
        {
            "inputs": [
                {
                    "internalType": "string",
                    "name": "_adminName",
                    "type": "string"
                },
                {
                    "internalType": "string",
                    "name": "_adminEmail",
                    "type": "string"
                },
                {
                    "internalType": "string",
                    "name": "_adminTitle",
                    "type": "string"
                },
                {
                    "internalType": "string",
                    "name": "_electionTitle",
                    "type": "string"
                },
                {
                    "internalType": "string",
                    "name": "_organizationTitle",
                    "type": "string"
                }
            ],
            "name": "setElectionDetails",
            "outputs": [],
            "stateMutability": "nonpayable",
            "type": "function"
        },
        {
            "inputs": [
                {
                    "internalType": "bool",
                    "name": "_verifedStatus",
                    "type": "bool"
                },
                {
                    "internalType": "address",
                    "name": "voterAddress",
                    "type": "address"
                }
            ],
            "name": "verifyVoter",
            "outputs": [],
            "stateMutability": "nonpayable",
            "type": "function"
        },
        {
            "inputs": [
                {
                    "internalType": "uint256",
                    "name": "candidateId",
                    "type": "uint256"
                }
            ],
            "name": "vote",
            "outputs": [],
            "stateMutability": "nonpayable",
            "type": "function"
        },
        {
            "inputs": [
                {
                    "internalType": "address",
                    "name": "",
                    "type": "address"
                }
            ],
            "name": "voterDetails",
            "outputs": [
                {
                    "internalType": "address",
                    "name": "voterAddress",
                    "type": "address"
                },
                {
                    "internalType": "string",
                    "name": "name",
                    "type": "string"
                },
                {
                    "internalType": "string",
                    "name": "phone",
                    "type": "string"
                },
                {
                    "internalType": "bool",
                    "name": "isVerified",
                    "type": "bool"
                },
                {
                    "internalType": "bool",
                    "name": "hasVoted",
                    "type": "bool"
                },
                {
                    "internalType": "bool",
                    "name": "isRegistered",
                    "type": "bool"
                }
            ],
            "stateMutability": "view",
            "type": "function"
        },
        {
            "inputs": [
                {
                    "internalType": "uint256",
                    "name": "",
                    "type": "uint256"
                }
            ],
            "name": "voters",
            "outputs": [
                {
                    "internalType": "address",
                    "name": "",
                    "type": "address"
                }
            ],
            "stateMutability": "view",
            "type": "function"
        }
    ],
    "bytecode": "608060405234801561001057600080fd5b50600080546001600160a01b0319163317815560018190556002556003805461ffff19169055610e99806100456000396000f3fe608060405234801561001057600080fd5b506004361061012c5760003560e01c806364d198a1116100ad578063c5292c6711610071578063c5292c671461025c578063da58c7d914610267578063e173730c1461027a578063f851a44014610282578063fee0d19a1461029557600080fd5b806364d198a1146102035780636e9960c31461020b578063831318f1146102305780639f05a36d14610238578063be081b6f1461025457600080fd5b806348343175116100f45780634834317514610198578063506b8e0a146101a05780635938750d146101b357806359f78468146101d85780636247e532146101e057600080fd5b80630121b93f146101315780630b93400e146101465780630e2354cf1461015d578063253e74e21461017257806326541b5614610185575b600080fd5b61014461013f366004610ce4565b6102a8565b005b6002545b6040519081526020015b60405180910390f35b610165610363565b6040516101549190610d9e565b610144610180366004610c18565b6103f8565b610144610193366004610bb7565b6104d3565b610165610580565b6101446101ae366004610b7f565b610592565b6101c66101c1366004610b5e565b6105d4565b60405161015496959493929190610d47565b61014461072d565b6101f36101ee366004610ce4565b610755565b6040516101549493929190610db1565b60015461014a565b6000546001600160a01b03165b6040516001600160a01b039091168152602001610154565b61016561088e565b600354610100900460ff165b6040519015158152602001610154565b6101656108a0565b60035460ff16610244565b610218610275366004610ce4565b6108b2565b6101656108dc565b600054610218906001600160a01b031681565b6101446102a3366004610bb7565b6108ee565b336000908152600b6020526040902060030154610100900460ff16156102cd57600080fd5b336000908152600b602052604090206003015460ff1615156001146102f157600080fd5b60035460ff16151560011461030557600080fd5b600354610100900460ff161561031a57600080fd5b600081815260046020526040812060030180546001929061033c908490610dee565b9091555050336000908152600b60205260409020600301805461ff00191661010017905550565b60606005600001805461037590610e12565b80601f01602080910402602001604051908101604052809291908181526020018280546103a190610e12565b80156103ee5780601f106103c3576101008083540402835291602001916103ee565b820191906000526020600020905b8154815290600101906020018083116103d157829003601f168201915b5050505050905090565b6000546001600160a01b0316331461040f57600080fd5b6040805160a081018252868152602080820187905291810185905260608101849052608081018390528651909160059161044e918391908a0190610a22565b5060208281015180516104679260018501920190610a22565b5060408201518051610483916002840191602090910190610a22565b506060820151805161049f916003840191602090910190610a22565b50608082015180516104bb916004840191602090910190610a22565b50506003805461ffff19166001179055505050505050565b6000546001600160a01b031633146104ea57600080fd5b604080516080810182526001805480835260208084018781528486018790526000606086018190529283526004825294909120835181559351805193948594909361053a93908501920190610a22565b5060408201518051610556916002840191602090910190610a22565b506060820151816003015590505060018060008282546105769190610dee565b9091555050505050565b60606005600401805461037590610e12565b6000546001600160a01b031633146105a957600080fd5b6001600160a01b03166000908152600b60205260409020600301805460ff1916911515919091179055565b600b60205260009081526040902080546001820180546001600160a01b03909216929161060090610e12565b80601f016020809104026020016040519081016040528092919081815260200182805461062c90610e12565b80156106795780601f1061064e57610100808354040283529160200191610679565b820191906000526020600020905b81548152906001019060200180831161065c57829003601f168201915b50505050509080600201805461068e90610e12565b80601f01602080910402602001604051908101604052809291908181526020018280546106ba90610e12565b80156107075780601f106106dc57610100808354040283529160200191610707565b820191906000526020600020905b8154815290600101906020018083116106ea57829003601f168201915b5050506003909301549192505060ff808216916101008104821691620100009091041686565b6000546001600160a01b0316331461074457600080fd5b6003805461ffff1916610100179055565b6004602052600090815260409020805460018201805491929161077790610e12565b80601f01602080910402602001604051908101604052809291908181526020018280546107a390610e12565b80156107f05780601f106107c5576101008083540402835291602001916107f0565b820191906000526020600020905b8154815290600101906020018083116107d357829003601f168201915b50505050509080600201805461080590610e12565b80601f016020809104026020016040519081016040528092919081815260200182805461083190610e12565b801561087e5780601f106108535761010080835404028352916020019161087e565b820191906000526020600020905b81548152906001019060200180831161086157829003601f168201915b5050505050908060030154905084565b60606005600101805461037590610e12565b60606005600201805461037590610e12565b600a81815481106108c257600080fd5b6000918252602090912001546001600160a01b0316905081565b60606005600301805461037590610e12565b6040805160c08101825233808252602080830186815283850186905260006060850181905260808501819052600160a08601819052938152600b835294909420835181546001600160a01b0319166001600160a01b039091161781559351805193948594909361096393908501920190610a22565b506040820151805161097f916002840191602090910190610a22565b50606082015160039091018054608084015160a0909401511515620100000262ff0000199415156101000261ff00199415159490941661ffff19909216919091179290921792909216179055600a80546001818101835560009283527fc65a7bb8d6351c1cf70c95a316cc6a92839c986682d98bc35f958f4883f9d2a890910180546001600160a01b031916331790556002805491929091610576908490610dee565b828054610a2e90610e12565b90600052602060002090601f016020900481019282610a505760008555610a96565b82601f10610a6957805160ff1916838001178555610a96565b82800160010185558215610a96579182015b82811115610a96578251825591602001919060010190610a7b565b50610aa2929150610aa6565b5090565b5b80821115610aa25760008155600101610aa7565b80356001600160a01b0381168114610ad257600080fd5b919050565b600082601f830112610ae7578081fd5b813567ffffffffffffffff80821115610b0257610b02610e4d565b604051601f8301601f19908116603f01168101908282118183101715610b2a57610b2a610e4d565b81604052838152866020858801011115610b42578485fd5b8360208701602083013792830160200193909352509392505050565b600060208284031215610b6f578081fd5b610b7882610abb565b9392505050565b60008060408385031215610b91578081fd5b82358015158114610ba0578182fd5b9150610bae60208401610abb565b90509250929050565b60008060408385031215610bc9578182fd5b823567ffffffffffffffff80821115610be0578384fd5b610bec86838701610ad7565b93506020850135915080821115610c01578283fd5b50610c0e85828601610ad7565b9150509250929050565b600080600080600060a08688031215610c2f578081fd5b853567ffffffffffffffff80821115610c46578283fd5b610c5289838a01610ad7565b96506020880135915080821115610c67578283fd5b610c7389838a01610ad7565b95506040880135915080821115610c88578283fd5b610c9489838a01610ad7565b94506060880135915080821115610ca9578283fd5b610cb589838a01610ad7565b93506080880135915080821115610cca578283fd5b50610cd788828901610ad7565b9150509295509295909350565b600060208284031215610cf5578081fd5b5035919050565b60008151808452815b81811015610d2157602081850181015186830182015201610d05565b81811115610d325782602083870101525b50601f01601f19169290920160200192915050565b6001600160a01b038716815260c060208201819052600090610d6b90830188610cfc565b8281036040840152610d7d8188610cfc565b951515606084015250509115156080830152151560a0909101529392505050565b602081526000610b786020830184610cfc565b848152608060208201526000610dca6080830186610cfc565b8281036040840152610ddc8186610cfc565b91505082606083015295945050505050565b60008219821115610e0d57634e487b7160e01b81526011600452602481fd5b500190565b600181811c90821680610e2657607f821691505b60208210811415610e4757634e487b7160e01b600052602260045260246000fd5b50919050565b634e487b7160e01b600052604160045260246000fdfea264697066735822122030a7609d1a51ba1d978e6cbd68f52dd6dddb5f8f79c55c08a06abf09b321c02864736f6c63430008040033",
    "sourcePath": "c:/Users/abhin/Desktop/Test Repos/BlockVote/contracts/Election.sol",
    "compiler": {
        "name": "solc",
        "version": "0.8.4+commit.c7e474f2"
    },
    "functionHashes": {
        "addCandidate(string,string)": "26541b56",
        "admin()": "f851a440",
        "candidateDetails(uint256)": "6247e532",
        "endElection()": "59f78468",
        "getAdmin()": "6e9960c3",
        "getAdminEmail()": "831318f1",
        "getAdminName()": "0e2354cf",
        "getAdminTitle()": "be081b6f",
        "getElectionTitle()": "e173730c",
        "getEnd()": "9f05a36d",
        "getOrganizationTitle()": "48343175",
        "getStart()": "c5292c67",
        "getTotalCandidate()": "64d198a1",
        "getTotalVoter()": "0b93400e",
        "registerAsVoter(string,string)": "fee0d19a",
        "setElectionDetails(string,string,string,string,string)": "253e74e2",
        "verifyVoter(bool,address)": "506b8e0a",
        "vote(uint256)": "0121b93f",
        "voterDetails(address)": "5938750d",
        "voters(uint256)": "da58c7d9"
    },
    "gasEstimates": {
        "creation": {
            "codeDepositCost": "747400",
            "executionCost": "52444",
            "totalCost": "799844"
        },
        "external": {
            "addCandidate(string,string)": "infinite",
            "admin()": "1125",
            "candidateDetails(uint256)": "infinite",
            "endElection()": "21897",
            "getAdmin()": "1065",
            "getAdminEmail()": "infinite",
            "getAdminName()": "infinite",
            "getAdminTitle()": "infinite",
            "getElectionTitle()": "infinite",
            "getEnd()": "1093",
            "getOrganizationTitle()": "infinite",
            "getStart()": "1026",
            "getTotalCandidate()": "1004",
            "getTotalVoter()": "1016",
            "registerAsVoter(string,string)": "infinite",
            "setElectionDetails(string,string,string,string,string)": "infinite",
            "verifyVoter(bool,address)": "22171",
            "vote(uint256)": "45607",
            "voterDetails(address)": "infinite",
            "voters(uint256)": "2058"
        }
    }
}